{
  "_format": "hh-sol-artifact-1",
  "contractName": "BlizzardOracleRouter",
  "sourceName": "contracts/BlizzardOracleRouter.sol",
  "abi": [
    {
      "inputs": [],
      "stateMutability": "nonpayable",
      "type": "constructor"
    },
    {
      "anonymous": false,
      "inputs": [
        {
          "indexed": true,
          "internalType": "address",
          "name": "owner",
          "type": "address"
        },
        {
          "indexed": true,
          "internalType": "address",
          "name": "approved",
          "type": "address"
        },
        {
          "indexed": true,
          "internalType": "uint256",
          "name": "tokenId",
          "type": "uint256"
        }
      ],
      "name": "Approval",
      "type": "event"
    },
    {
      "anonymous": false,
      "inputs": [
        {
          "indexed": true,
          "internalType": "address",
          "name": "owner",
          "type": "address"
        },
        {
          "indexed": true,
          "internalType": "address",
          "name": "operator",
          "type": "address"
        },
        {
          "indexed": false,
          "internalType": "bool",
          "name": "approved",
          "type": "bool"
        }
      ],
      "name": "ApprovalForAll",
      "type": "event"
    },
    {
      "anonymous": false,
      "inputs": [
        {
          "indexed": true,
          "internalType": "address",
          "name": "delegator",
          "type": "address"
        },
        {
          "indexed": true,
          "internalType": "address",
          "name": "fromDelegate",
          "type": "address"
        },
        {
          "indexed": true,
          "internalType": "address",
          "name": "toDelegate",
          "type": "address"
        }
      ],
      "name": "DelegateChanged",
      "type": "event"
    },
    {
      "anonymous": false,
      "inputs": [
        {
          "indexed": true,
          "internalType": "address",
          "name": "delegate",
          "type": "address"
        },
        {
          "indexed": false,
          "internalType": "uint256",
          "name": "previousBalance",
          "type": "uint256"
        },
        {
          "indexed": false,
          "internalType": "uint256",
          "name": "newBalance",
          "type": "uint256"
        }
      ],
      "name": "DelegateVotesChanged",
      "type": "event"
    },
    {
      "anonymous": false,
      "inputs": [
        {
          "indexed": false,
          "internalType": "address",
          "name": "account",
          "type": "address"
        }
      ],
      "name": "Paused",
      "type": "event"
    },
    {
      "anonymous": false,
      "inputs": [
        {
          "indexed": false,
          "internalType": "address",
          "name": "from",
          "type": "address"
        },
        {
          "indexed": false,
          "internalType": "enum BlizzardOracleRouter.Currency",
          "name": "base",
          "type": "uint8"
        },
        {
          "indexed": false,
          "internalType": "enum BlizzardOracleRouter.Currency",
          "name": "quote",
          "type": "uint8"
        }
      ],
      "name": "PriceRequest",
      "type": "event"
    },
    {
      "anonymous": false,
      "inputs": [
        {
          "indexed": true,
          "internalType": "bytes32",
          "name": "role",
          "type": "bytes32"
        },
        {
          "indexed": true,
          "internalType": "bytes32",
          "name": "previousAdminRole",
          "type": "bytes32"
        },
        {
          "indexed": true,
          "internalType": "bytes32",
          "name": "newAdminRole",
          "type": "bytes32"
        }
      ],
      "name": "RoleAdminChanged",
      "type": "event"
    },
    {
      "anonymous": false,
      "inputs": [
        {
          "indexed": true,
          "internalType": "bytes32",
          "name": "role",
          "type": "bytes32"
        },
        {
          "indexed": true,
          "internalType": "address",
          "name": "account",
          "type": "address"
        },
        {
          "indexed": true,
          "internalType": "address",
          "name": "sender",
          "type": "address"
        }
      ],
      "name": "RoleGranted",
      "type": "event"
    },
    {
      "anonymous": false,
      "inputs": [
        {
          "indexed": true,
          "internalType": "bytes32",
          "name": "role",
          "type": "bytes32"
        },
        {
          "indexed": true,
          "internalType": "address",
          "name": "account",
          "type": "address"
        },
        {
          "indexed": true,
          "internalType": "address",
          "name": "sender",
          "type": "address"
        }
      ],
      "name": "RoleRevoked",
      "type": "event"
    },
    {
      "anonymous": false,
      "inputs": [
        {
          "indexed": true,
          "internalType": "address",
          "name": "from",
          "type": "address"
        },
        {
          "indexed": true,
          "internalType": "address",
          "name": "to",
          "type": "address"
        },
        {
          "indexed": true,
          "internalType": "uint256",
          "name": "tokenId",
          "type": "uint256"
        }
      ],
      "name": "Transfer",
      "type": "event"
    },
    {
      "anonymous": false,
      "inputs": [
        {
          "indexed": false,
          "internalType": "address",
          "name": "account",
          "type": "address"
        }
      ],
      "name": "Unpaused",
      "type": "event"
    },
    {
      "inputs": [],
      "name": "DEFAULT_ADMIN_ROLE",
      "outputs": [
        {
          "internalType": "bytes32",
          "name": "",
          "type": "bytes32"
        }
      ],
      "stateMutability": "view",
      "type": "function"
    },
    {
      "inputs": [],
      "name": "DOMAIN_SEPARATOR",
      "outputs": [
        {
          "internalType": "bytes32",
          "name": "",
          "type": "bytes32"
        }
      ],
      "stateMutability": "view",
      "type": "function"
    },
    {
      "inputs": [],
      "name": "MINTER_ROLE",
      "outputs": [
        {
          "internalType": "bytes32",
          "name": "",
          "type": "bytes32"
        }
      ],
      "stateMutability": "view",
      "type": "function"
    },
    {
      "inputs": [],
      "name": "PAUSER_ROLE",
      "outputs": [
        {
          "internalType": "bytes32",
          "name": "",
          "type": "bytes32"
        }
      ],
      "stateMutability": "view",
      "type": "function"
    },
    {
      "inputs": [
        {
          "internalType": "address",
          "name": "to",
          "type": "address"
        },
        {
          "internalType": "uint256",
          "name": "tokenId",
          "type": "uint256"
        }
      ],
      "name": "approve",
      "outputs": [],
      "stateMutability": "nonpayable",
      "type": "function"
    },
    {
      "inputs": [
        {
          "internalType": "address",
          "name": "owner",
          "type": "address"
        }
      ],
      "name": "balanceOf",
      "outputs": [
        {
          "internalType": "uint256",
          "name": "",
          "type": "uint256"
        }
      ],
      "stateMutability": "view",
      "type": "function"
    },
    {
      "inputs": [
        {
          "internalType": "uint256",
          "name": "tokenId",
          "type": "uint256"
        }
      ],
      "name": "burn",
      "outputs": [],
      "stateMutability": "nonpayable",
      "type": "function"
    },
    {
      "inputs": [
        {
          "internalType": "address",
          "name": "delegatee",
          "type": "address"
        }
      ],
      "name": "delegate",
      "outputs": [],
      "stateMutability": "nonpayable",
      "type": "function"
    },
    {
      "inputs": [
        {
          "internalType": "address",
          "name": "delegatee",
          "type": "address"
        },
        {
          "internalType": "uint256",
          "name": "nonce",
          "type": "uint256"
        },
        {
          "internalType": "uint256",
          "name": "expiry",
          "type": "uint256"
        },
        {
          "internalType": "uint8",
          "name": "v",
          "type": "uint8"
        },
        {
          "internalType": "bytes32",
          "name": "r",
          "type": "bytes32"
        },
        {
          "internalType": "bytes32",
          "name": "s",
          "type": "bytes32"
        }
      ],
      "name": "delegateBySig",
      "outputs": [],
      "stateMutability": "nonpayable",
      "type": "function"
    },
    {
      "inputs": [
        {
          "internalType": "address",
          "name": "account",
          "type": "address"
        }
      ],
      "name": "delegates",
      "outputs": [
        {
          "internalType": "address",
          "name": "",
          "type": "address"
        }
      ],
      "stateMutability": "view",
      "type": "function"
    },
    {
      "inputs": [
        {
          "internalType": "uint256",
          "name": "tokenId",
          "type": "uint256"
        }
      ],
      "name": "getApproved",
      "outputs": [
        {
          "internalType": "address",
          "name": "",
          "type": "address"
        }
      ],
      "stateMutability": "view",
      "type": "function"
    },
    {
      "inputs": [
        {
          "internalType": "uint256",
          "name": "blockNumber",
          "type": "uint256"
        }
      ],
      "name": "getPastTotalSupply",
      "outputs": [
        {
          "internalType": "uint256",
          "name": "",
          "type": "uint256"
        }
      ],
      "stateMutability": "view",
      "type": "function"
    },
    {
      "inputs": [
        {
          "internalType": "address",
          "name": "account",
          "type": "address"
        },
        {
          "internalType": "uint256",
          "name": "blockNumber",
          "type": "uint256"
        }
      ],
      "name": "getPastVotes",
      "outputs": [
        {
          "internalType": "uint256",
          "name": "",
          "type": "uint256"
        }
      ],
      "stateMutability": "view",
      "type": "function"
    },
    {
      "inputs": [
        {
          "internalType": "bytes32",
          "name": "url_base",
          "type": "bytes32"
        },
        {
          "internalType": "bytes32",
          "name": "path",
          "type": "bytes32"
        },
        {
          "internalType": "bytes32",
          "name": "query",
          "type": "bytes32"
        },
        {
          "internalType": "bytes32",
          "name": "headers",
          "type": "bytes32"
        }
      ],
      "name": "getPriceFull",
      "outputs": [
        {
          "internalType": "bool",
          "name": "",
          "type": "bool"
        }
      ],
      "stateMutability": "nonpayable",
      "type": "function"
    },
    {
      "inputs": [
        {
          "internalType": "uint8",
          "name": "base",
          "type": "uint8"
        },
        {
          "internalType": "uint8",
          "name": "quote",
          "type": "uint8"
        }
      ],
      "name": "getPriceSimple",
      "outputs": [
        {
          "internalType": "bool",
          "name": "",
          "type": "bool"
        }
      ],
      "stateMutability": "nonpayable",
      "type": "function"
    },
    {
      "inputs": [
        {
          "internalType": "bytes32",
          "name": "role",
          "type": "bytes32"
        }
      ],
      "name": "getRoleAdmin",
      "outputs": [
        {
          "internalType": "bytes32",
          "name": "",
          "type": "bytes32"
        }
      ],
      "stateMutability": "view",
      "type": "function"
    },
    {
      "inputs": [
        {
          "internalType": "address",
          "name": "account",
          "type": "address"
        }
      ],
      "name": "getVotes",
      "outputs": [
        {
          "internalType": "uint256",
          "name": "",
          "type": "uint256"
        }
      ],
      "stateMutability": "view",
      "type": "function"
    },
    {
      "inputs": [
        {
          "internalType": "bytes32",
          "name": "role",
          "type": "bytes32"
        },
        {
          "internalType": "address",
          "name": "account",
          "type": "address"
        }
      ],
      "name": "grantRole",
      "outputs": [],
      "stateMutability": "nonpayable",
      "type": "function"
    },
    {
      "inputs": [
        {
          "internalType": "bytes32",
          "name": "role",
          "type": "bytes32"
        },
        {
          "internalType": "address",
          "name": "account",
          "type": "address"
        }
      ],
      "name": "hasRole",
      "outputs": [
        {
          "internalType": "bool",
          "name": "",
          "type": "bool"
        }
      ],
      "stateMutability": "view",
      "type": "function"
    },
    {
      "inputs": [
        {
          "internalType": "address",
          "name": "owner",
          "type": "address"
        },
        {
          "internalType": "address",
          "name": "operator",
          "type": "address"
        }
      ],
      "name": "isApprovedForAll",
      "outputs": [
        {
          "internalType": "bool",
          "name": "",
          "type": "bool"
        }
      ],
      "stateMutability": "view",
      "type": "function"
    },
    {
      "inputs": [],
      "name": "name",
      "outputs": [
        {
          "internalType": "string",
          "name": "",
          "type": "string"
        }
      ],
      "stateMutability": "view",
      "type": "function"
    },
    {
      "inputs": [
        {
          "internalType": "address",
          "name": "owner",
          "type": "address"
        }
      ],
      "name": "nonces",
      "outputs": [
        {
          "internalType": "uint256",
          "name": "",
          "type": "uint256"
        }
      ],
      "stateMutability": "view",
      "type": "function"
    },
    {
      "inputs": [
        {
          "internalType": "uint256",
          "name": "tokenId",
          "type": "uint256"
        }
      ],
      "name": "ownerOf",
      "outputs": [
        {
          "internalType": "address",
          "name": "",
          "type": "address"
        }
      ],
      "stateMutability": "view",
      "type": "function"
    },
    {
      "inputs": [],
      "name": "pause",
      "outputs": [],
      "stateMutability": "nonpayable",
      "type": "function"
    },
    {
      "inputs": [],
      "name": "paused",
      "outputs": [
        {
          "internalType": "bool",
          "name": "",
          "type": "bool"
        }
      ],
      "stateMutability": "view",
      "type": "function"
    },
    {
      "inputs": [
        {
          "internalType": "bytes32",
          "name": "role",
          "type": "bytes32"
        },
        {
          "internalType": "address",
          "name": "account",
          "type": "address"
        }
      ],
      "name": "renounceRole",
      "outputs": [],
      "stateMutability": "nonpayable",
      "type": "function"
    },
    {
      "inputs": [
        {
          "internalType": "bytes32",
          "name": "role",
          "type": "bytes32"
        },
        {
          "internalType": "address",
          "name": "account",
          "type": "address"
        }
      ],
      "name": "revokeRole",
      "outputs": [],
      "stateMutability": "nonpayable",
      "type": "function"
    },
    {
      "inputs": [
        {
          "internalType": "address",
          "name": "to",
          "type": "address"
        },
        {
          "internalType": "string",
          "name": "uri",
          "type": "string"
        }
      ],
      "name": "safeMint",
      "outputs": [],
      "stateMutability": "nonpayable",
      "type": "function"
    },
    {
      "inputs": [
        {
          "internalType": "address",
          "name": "from",
          "type": "address"
        },
        {
          "internalType": "address",
          "name": "to",
          "type": "address"
        },
        {
          "internalType": "uint256",
          "name": "tokenId",
          "type": "uint256"
        }
      ],
      "name": "safeTransferFrom",
      "outputs": [],
      "stateMutability": "nonpayable",
      "type": "function"
    },
    {
      "inputs": [
        {
          "internalType": "address",
          "name": "from",
          "type": "address"
        },
        {
          "internalType": "address",
          "name": "to",
          "type": "address"
        },
        {
          "internalType": "uint256",
          "name": "tokenId",
          "type": "uint256"
        },
        {
          "internalType": "bytes",
          "name": "data",
          "type": "bytes"
        }
      ],
      "name": "safeTransferFrom",
      "outputs": [],
      "stateMutability": "nonpayable",
      "type": "function"
    },
    {
      "inputs": [
        {
          "internalType": "address",
          "name": "operator",
          "type": "address"
        },
        {
          "internalType": "bool",
          "name": "approved",
          "type": "bool"
        }
      ],
      "name": "setApprovalForAll",
      "outputs": [],
      "stateMutability": "nonpayable",
      "type": "function"
    },
    {
      "inputs": [
        {
          "internalType": "bytes4",
          "name": "interfaceId",
          "type": "bytes4"
        }
      ],
      "name": "supportsInterface",
      "outputs": [
        {
          "internalType": "bool",
          "name": "",
          "type": "bool"
        }
      ],
      "stateMutability": "view",
      "type": "function"
    },
    {
      "inputs": [],
      "name": "symbol",
      "outputs": [
        {
          "internalType": "string",
          "name": "",
          "type": "string"
        }
      ],
      "stateMutability": "view",
      "type": "function"
    },
    {
      "inputs": [
        {
          "internalType": "uint256",
          "name": "index",
          "type": "uint256"
        }
      ],
      "name": "tokenByIndex",
      "outputs": [
        {
          "internalType": "uint256",
          "name": "",
          "type": "uint256"
        }
      ],
      "stateMutability": "view",
      "type": "function"
    },
    {
      "inputs": [
        {
          "internalType": "address",
          "name": "owner",
          "type": "address"
        },
        {
          "internalType": "uint256",
          "name": "index",
          "type": "uint256"
        }
      ],
      "name": "tokenOfOwnerByIndex",
      "outputs": [
        {
          "internalType": "uint256",
          "name": "",
          "type": "uint256"
        }
      ],
      "stateMutability": "view",
      "type": "function"
    },
    {
      "inputs": [
        {
          "internalType": "uint256",
          "name": "tokenId",
          "type": "uint256"
        }
      ],
      "name": "tokenURI",
      "outputs": [
        {
          "internalType": "string",
          "name": "",
          "type": "string"
        }
      ],
      "stateMutability": "view",
      "type": "function"
    },
    {
      "inputs": [],
      "name": "totalSupply",
      "outputs": [
        {
          "internalType": "uint256",
          "name": "",
          "type": "uint256"
        }
      ],
      "stateMutability": "view",
      "type": "function"
    },
    {
      "inputs": [
        {
          "internalType": "address",
          "name": "from",
          "type": "address"
        },
        {
          "internalType": "address",
          "name": "to",
          "type": "address"
        },
        {
          "internalType": "uint256",
          "name": "tokenId",
          "type": "uint256"
        }
      ],
      "name": "transferFrom",
      "outputs": [],
      "stateMutability": "nonpayable",
      "type": "function"
    },
    {
      "inputs": [],
      "name": "unpause",
      "outputs": [],
      "stateMutability": "nonpayable",
      "type": "function"
    }
  ],
  "bytecode": "0x6101406040523480156200001257600080fd5b5060408051808201825260148082527f426c697a7a6172644f7261636c65526f7574657200000000000000000000000060208084018290528451808601865260018152603160f81b818301528551808701875293845283820192909252845180860190955260038552622127a960e91b9085015291926000620000968382620002f6565b506001620000a58282620002f6565b5050600b805460ff1916905550815160209283012081519183019190912060e08290526101008190524660a0818152604080517f8b73c3c69bb8fe3d512ecc4cf759cc79239f7b179b0ffacaa9a75d522b39400f818801819052818301969096526060810194909452608080850193909352308483018190528151808603909301835260c094850190915281519190950120905291909152610120526200014e600033620001ac565b6200017a7f65d7a28e3265b37a6474929f336521b332c1681b933f6cb9f3376673440d862a33620001ac565b620001a67f9f2df0fed2c77648de5860a4cc508cd0818c85b8b8a1ab4ceeef8d981c8956a633620001ac565b620003c2565b6000828152600c602090815260408083206001600160a01b038516845290915290205460ff166200024d576000828152600c602090815260408083206001600160a01b03851684529091529020805460ff191660011790556200020c3390565b6001600160a01b0316816001600160a01b0316837f2f8788117e7eff1d82e926ec794901d17c78024a50270940304540a733656f0d60405160405180910390a45b5050565b634e487b7160e01b600052604160045260246000fd5b600181811c908216806200027c57607f821691505b6020821081036200029d57634e487b7160e01b600052602260045260246000fd5b50919050565b601f821115620002f157600081815260208120601f850160051c81016020861015620002cc5750805b601f850160051c820191505b81811015620002ed57828155600101620002d8565b5050505b505050565b81516001600160401b0381111562000312576200031262000251565b6200032a8162000323845462000267565b84620002a3565b602080601f831160018114620003625760008415620003495750858301515b600019600386901b1c1916600185901b178555620002ed565b600085815260208120601f198616915b82811015620003935788860151825594840194600190910190840162000372565b5085821015620003b25787850151600019600388901b60f8161c191681555b5050505050600190811b01905550565b60805160a05160c05160e05161010051610120516136a96200041260003960006112a6015260006112f5015260006112d001526000611229015260006112530152600061127d01526136a96000f3fe608060405234801561001057600080fd5b506004361061023d5760003560e01c80635c19a95c1161013b578063a217fddf116100b8578063d204c45e1161007c578063d204c45e146104e2578063d5391393146104f5578063d547741f1461051c578063e63ab1e91461052f578063e985e9c51461055657600080fd5b8063a217fddf1461048e578063a22cb46514610496578063b88d4fde146104a9578063c3cda520146104bc578063c87b56dd146104cf57600080fd5b80638456cb59116100ff5780638456cb59146104455780638e539e8c1461044d57806391d148541461046057806395d89b41146104735780639ab24eb01461047b57600080fd5b80635c19a95c146103ee5780635c975abb146104015780636352211e1461040c57806370a082311461041f5780637ecebe001461043257600080fd5b80633644e515116101c95780633fc5c63c1161018d5780633fc5c63c1461037657806342842e0e1461038957806342966c681461039c5780634f6ccce7146103af578063587cde1e146103c257600080fd5b80633644e5151461032d57806336568abe1461033557806336f1ee45146103485780633a46b1a81461035b5780633f4ba83a1461036e57600080fd5b806318160ddd1161021057806318160ddd146102bf57806323b872dd146102d1578063248a9ca3146102e45780632f2ff15d146103075780632f745c591461031a57600080fd5b806301ffc9a71461024257806306fdde031461026a578063081812fc1461027f578063095ea7b3146102aa575b600080fd5b610255610250366004612e28565b610592565b60405190151581526020015b60405180910390f35b6102726105a3565b6040516102619190612e95565b61029261028d366004612ea8565b610635565b6040516001600160a01b039091168152602001610261565b6102bd6102b8366004612edd565b61065c565b005b6008545b604051908152602001610261565b6102bd6102df366004612f07565b610776565b6102c36102f2366004612ea8565b6000908152600c602052604090206001015490565b6102bd610315366004612f43565b6107a8565b6102c3610328366004612edd565b6107cd565b6102c3610863565b6102bd610343366004612f43565b610872565b610255610356366004612f6f565b6108f0565b6102c3610369366004612edd565b6108fb565b6102bd610924565b610255610384366004612fb2565b610959565b6102bd610397366004612f07565b6109c7565b6102bd6103aa366004612ea8565b6109e2565b6102c36103bd366004612ea8565b610a10565b6102926103d0366004612fdc565b6001600160a01b039081166000908152600d60205260409020541690565b6102bd6103fc366004612fdc565b610aa3565b600b5460ff16610255565b61029261041a366004612ea8565b610aae565b6102c361042d366004612fdc565b610b0e565b6102c3610440366004612fdc565b610b94565b6102bd610bb2565b6102c361045b366004612ea8565b610be4565b61025561046e366004612f43565b610c40565b610272610c6b565b6102c3610489366004612fdc565b610c7a565b6102c3600081565b6102bd6104a4366004612ff7565b610caa565b6102bd6104b73660046130bf565b610cb5565b6102bd6104ca36600461313b565b610ced565b6102726104dd366004612ea8565b610e1a565b6102bd6104f0366004613193565b610e25565b6102c37f9f2df0fed2c77648de5860a4cc508cd0818c85b8b8a1ab4ceeef8d981c8956a681565b6102bd61052a366004612f43565b610e7e565b6102c37f65d7a28e3265b37a6474929f336521b332c1681b933f6cb9f3376673440d862a81565b6102556105643660046131f5565b6001600160a01b03918216600090815260056020908152604080832093909416825291909152205460ff1690565b600061059d82610ea3565b92915050565b6060600080546105b29061321f565b80601f01602080910402602001604051908101604052809291908181526020018280546105de9061321f565b801561062b5780601f106106005761010080835404028352916020019161062b565b820191906000526020600020905b81548152906001019060200180831161060e57829003601f168201915b5050505050905090565b600061064082610ec8565b506000908152600460205260409020546001600160a01b031690565b600061066782610aae565b9050806001600160a01b0316836001600160a01b0316036106d95760405162461bcd60e51b815260206004820152602160248201527f4552433732313a20617070726f76616c20746f2063757272656e74206f776e656044820152603960f91b60648201526084015b60405180910390fd5b336001600160a01b03821614806106f557506106f58133610564565b6107675760405162461bcd60e51b815260206004820152603d60248201527f4552433732313a20617070726f76652063616c6c6572206973206e6f7420746f60448201527f6b656e206f776e6572206f7220617070726f76656420666f7220616c6c00000060648201526084016106d0565b6107718383610f27565b505050565b610781335b82610f95565b61079d5760405162461bcd60e51b81526004016106d090613253565b610771838383611013565b6000828152600c60205260409020600101546107c38161118c565b6107718383611196565b60006107d883610b0e565b821061083a5760405162461bcd60e51b815260206004820152602b60248201527f455243373231456e756d657261626c653a206f776e657220696e646578206f7560448201526a74206f6620626f756e647360a81b60648201526084016106d0565b506001600160a01b03919091166000908152600660209081526040808320938352929052205490565b600061086d61121c565b905090565b6001600160a01b03811633146108e25760405162461bcd60e51b815260206004820152602f60248201527f416363657373436f6e74726f6c3a2063616e206f6e6c792072656e6f756e636560448201526e103937b632b9903337b91039b2b63360891b60648201526084016106d0565b6108ec8282611343565b5050565b60015b949350505050565b6001600160a01b0382166000908152600e6020526040812061091d90836113aa565b9392505050565b7f65d7a28e3265b37a6474929f336521b332c1681b933f6cb9f3376673440d862a61094e8161118c565b6109566114c6565b50565b60007f0a30c8e552048c66623c339e73e459666bf2b028901ed7a81084f7df3573c07b338460ff166003811115610992576109926132a0565b8460ff1660038111156109a7576109a76132a0565b6040516109b6939291906132d8565b60405180910390a150600192915050565b61077183838360405180602001604052806000815250610cb5565b6109eb3361077b565b610a075760405162461bcd60e51b81526004016106d090613253565b61095681611518565b6000610a1b60085490565b8210610a7e5760405162461bcd60e51b815260206004820152602c60248201527f455243373231456e756d657261626c653a20676c6f62616c20696e646578206f60448201526b7574206f6620626f756e647360a01b60648201526084016106d0565b60088281548110610a9157610a91613302565b90600052602060002001549050919050565b336108ec8183611521565b6000818152600260205260408120546001600160a01b03168061059d5760405162461bcd60e51b8152602060048201526018602482015277115490cdcc8c4e881a5b9d985b1a59081d1bdad95b88125160421b60448201526064016106d0565b60006001600160a01b038216610b785760405162461bcd60e51b815260206004820152602960248201527f4552433732313a2061646472657373207a65726f206973206e6f7420612076616044820152683634b21037bbb732b960b91b60648201526084016106d0565b506001600160a01b031660009081526003602052604090205490565b6001600160a01b03811660009081526010602052604081205461059d565b7f65d7a28e3265b37a6474929f336521b332c1681b933f6cb9f3376673440d862a610bdc8161118c565b610956611593565b6000438210610c355760405162461bcd60e51b815260206004820152601a60248201527f566f7465733a20626c6f636b206e6f7420796574206d696e656400000000000060448201526064016106d0565b61059d600f836113aa565b6000918252600c602090815260408084206001600160a01b0393909316845291905290205460ff1690565b6060600180546105b29061321f565b6001600160a01b0381166000908152600e60205260408120610c9b906115d0565b6001600160e01b031692915050565b6108ec33838361160a565b610cbf3383610f95565b610cdb5760405162461bcd60e51b81526004016106d090613253565b610ce7848484846116d8565b50505050565b83421115610d3d5760405162461bcd60e51b815260206004820152601860248201527f566f7465733a207369676e61747572652065787069726564000000000000000060448201526064016106d0565b604080517fe48329057bfd03d55e49b547132e39cffd9c1820ad7b9d4c5307691425d15adf60208201526001600160a01b038816918101919091526060810186905260808101859052600090610db790610daf9060a0016040516020818303038152906040528051906020012061170b565b858585611759565b9050610dc281611781565b8614610e075760405162461bcd60e51b8152602060048201526014602482015273566f7465733a20696e76616c6964206e6f6e636560601b60448201526064016106d0565b610e118188611521565b50505050505050565b606061059d826117a9565b7f9f2df0fed2c77648de5860a4cc508cd0818c85b8b8a1ab4ceeef8d981c8956a6610e4f8161118c565b6000610e5a60115490565b9050610e6a601180546001019055565b610e7484826118b1565b610ce781846118cb565b6000828152600c6020526040902060010154610e998161118c565b6107718383611343565b60006001600160e01b03198216637965db0b60e01b148061059d575061059d8261195e565b6000818152600260205260409020546001600160a01b03166109565760405162461bcd60e51b8152602060048201526018602482015277115490cdcc8c4e881a5b9d985b1a59081d1bdad95b88125160421b60448201526064016106d0565b600081815260046020526040902080546001600160a01b0319166001600160a01b0384169081179091558190610f5c82610aae565b6001600160a01b03167f8c5be1e5ebec7d5bd14f71427d1e84f3dd0314c0f7b2291e5b200ac8c7c3b92560405160405180910390a45050565b600080610fa183610aae565b9050806001600160a01b0316846001600160a01b03161480610fe857506001600160a01b0380821660009081526005602090815260408083209388168352929052205460ff165b806108f35750836001600160a01b031661100184610635565b6001600160a01b031614949350505050565b826001600160a01b031661102682610aae565b6001600160a01b03161461104c5760405162461bcd60e51b81526004016106d090613318565b6001600160a01b0382166110ae5760405162461bcd60e51b8152602060048201526024808201527f4552433732313a207472616e7366657220746f20746865207a65726f206164646044820152637265737360e01b60648201526084016106d0565b6110bb8383836001611983565b826001600160a01b03166110ce82610aae565b6001600160a01b0316146110f45760405162461bcd60e51b81526004016106d090613318565b600081815260046020908152604080832080546001600160a01b03199081169091556001600160a01b0387811680865260038552838620805460001901905590871680865283862080546001019055868652600290945282852080549092168417909155905184937fddf252ad1be2c89b69c2b068fc378daa952ba7f163c4a11628f55a4df523b3ef91a46107718383836001611997565b61095681336119a3565b6111a08282610c40565b6108ec576000828152600c602090815260408083206001600160a01b03851684529091529020805460ff191660011790556111d83390565b6001600160a01b0316816001600160a01b0316837f2f8788117e7eff1d82e926ec794901d17c78024a50270940304540a733656f0d60405160405180910390a45050565b6000306001600160a01b037f00000000000000000000000000000000000000000000000000000000000000001614801561127557507f000000000000000000000000000000000000000000000000000000000000000046145b1561129f57507f000000000000000000000000000000000000000000000000000000000000000090565b50604080517f00000000000000000000000000000000000000000000000000000000000000006020808301919091527f0000000000000000000000000000000000000000000000000000000000000000828401527f000000000000000000000000000000000000000000000000000000000000000060608301524660808301523060a0808401919091528351808403909101815260c0909201909252805191012090565b61134d8282610c40565b156108ec576000828152600c602090815260408083206001600160a01b0385168085529252808320805460ff1916905551339285917ff6391f5c32d9c69d2a47ea670b442974b53935d1edc7fd64eb21e047a839171b9190a45050565b60004382106113fb5760405162461bcd60e51b815260206004820181905260248201527f436865636b706f696e74733a20626c6f636b206e6f7420796574206d696e656460448201526064016106d0565b6000611406836119fc565b8454909150600081600581111561146457600061142284611a65565b61142c9085613373565b60008981526020902090915081015463ffffffff908116908616101561145457809150611462565b61145f816001613386565b92505b505b600061147288868585611b4d565b905080156114ae5761149788611489600184613373565b600091825260209091200190565b5464010000000090046001600160e01b03166114b1565b60005b6001600160e01b031698975050505050505050565b6114ce611bab565b600b805460ff191690557f5db9ee0a495bf2e6ff9c91a7834c1ba4fdd244a5e8aa4e537bd38aeae4b073aa335b6040516001600160a01b03909116815260200160405180910390a1565b61095681611bf6565b6001600160a01b038281166000818152600d602052604080822080548686166001600160a01b0319821681179092559151919094169392849290917f3134e8a2e6d97e929a7e54011ea5485d7d196dd5f0ba4d4ef95803e8e3fc257f9190a4610771818361158e86611c36565b611c41565b61159b611d7e565b600b805460ff191660011790557f62e78cea01bee320cd4e420270b5ea74000d11b0c9f74754ebdbfc544b05a2586114fb3390565b80546000908015611601576115ea83611489600184613373565b5464010000000090046001600160e01b031661091d565b60009392505050565b816001600160a01b0316836001600160a01b03160361166b5760405162461bcd60e51b815260206004820152601960248201527f4552433732313a20617070726f766520746f2063616c6c65720000000000000060448201526064016106d0565b6001600160a01b03838116600081815260056020908152604080832094871680845294825291829020805460ff191686151590811790915591519182527f17307eab39ab6107e8899845ad3d59bd9653f200f220920489ca2b5937696c31910160405180910390a3505050565b6116e3848484611013565b6116ef84848484611dc4565b610ce75760405162461bcd60e51b81526004016106d090613399565b600061059d61171861121c565b8360405161190160f01b6020820152602281018390526042810182905260009060620160405160208183030381529060405280519060200120905092915050565b600080600061176a87878787611ec2565b9150915061177781611f86565b5095945050505050565b6001600160a01b03811660009081526010602052604090208054600181018255905b50919050565b60606117b482610ec8565b6000828152600a6020526040812080546117cd9061321f565b80601f01602080910402602001604051908101604052809291908181526020018280546117f99061321f565b80156118465780601f1061181b57610100808354040283529160200191611846565b820191906000526020600020905b81548152906001019060200180831161182957829003601f168201915b50505050509050600061186460408051602081019091526000815290565b90508051600003611876575092915050565b8151156118a85780826040516020016118909291906133eb565b60405160208183030381529060405292505050919050565b6108f3846120d0565b6108ec828260405180602001604052806000815250612143565b6000828152600260205260409020546001600160a01b03166119465760405162461bcd60e51b815260206004820152602e60248201527f45524337323155524953746f726167653a2055524920736574206f66206e6f6e60448201526d32bc34b9ba32b73a103a37b5b2b760911b60648201526084016106d0565b6000828152600a602052604090206107718282613468565b60006001600160e01b0319821663780e9d6360e01b148061059d575061059d82612176565b61198b611d7e565b610ce7848484846121c6565b610ce7848484846122fa565b6119ad8282610c40565b6108ec576119ba8161230a565b6119c583602061231c565b6040516020016119d6929190613528565b60408051601f198184030181529082905262461bcd60e51b82526106d091600401612e95565b600063ffffffff821115611a615760405162461bcd60e51b815260206004820152602660248201527f53616665436173743a2076616c756520646f65736e27742066697420696e203360448201526532206269747360d01b60648201526084016106d0565b5090565b600081600003611a7757506000919050565b60006001611a84846124b8565b901c6001901b90506001818481611a9d57611a9d61359d565b048201901c90506001818481611ab557611ab561359d565b048201901c90506001818481611acd57611acd61359d565b048201901c90506001818481611ae557611ae561359d565b048201901c90506001818481611afd57611afd61359d565b048201901c90506001818481611b1557611b1561359d565b048201901c90506001818481611b2d57611b2d61359d565b048201901c905061091d81828581611b4757611b4761359d565b0461254c565b60005b81831015611ba3576000611b648484612562565b60008781526020902090915063ffffffff86169082015463ffffffff161115611b8f57809250611b9d565b611b9a816001613386565b93505b50611b50565b509392505050565b600b5460ff16611bf45760405162461bcd60e51b815260206004820152601460248201527314185d5cd8589b194e881b9bdd081c185d5cd95960621b60448201526064016106d0565b565b611bff8161257d565b6000818152600a602052604090208054611c189061321f565b159050610956576000818152600a6020526040812061095691612dc8565b600061059d82610b0e565b816001600160a01b0316836001600160a01b031614158015611c635750600081115b15610771576001600160a01b03831615611cf1576001600160a01b0383166000908152600e602052604081208190611c9e9061262a85612636565b91509150846001600160a01b03167fdec2bacdd2f05b59de34da9b523dff8be42e5e38e818c82fdb0bae774387a7248383604051611ce6929190918252602082015260400190565b60405180910390a250505b6001600160a01b03821615610771576001600160a01b0382166000908152600e602052604081208190611d279061266e85612636565b91509150836001600160a01b03167fdec2bacdd2f05b59de34da9b523dff8be42e5e38e818c82fdb0bae774387a7248383604051611d6f929190918252602082015260400190565b60405180910390a25050505050565b600b5460ff1615611bf45760405162461bcd60e51b815260206004820152601060248201526f14185d5cd8589b194e881c185d5cd95960821b60448201526064016106d0565b60006001600160a01b0384163b15611eba57604051630a85bd0160e11b81526001600160a01b0385169063150b7a0290611e089033908990889088906004016135b3565b6020604051808303816000875af1925050508015611e43575060408051601f3d908101601f19168201909252611e40918101906135f0565b60015b611ea0573d808015611e71576040519150601f19603f3d011682016040523d82523d6000602084013e611e76565b606091505b508051600003611e985760405162461bcd60e51b81526004016106d090613399565b805181602001fd5b6001600160e01b031916630a85bd0160e11b1490506108f3565b5060016108f3565b6000807f7fffffffffffffffffffffffffffffff5d576e7357a4501ddfe92f46681b20a0831115611ef95750600090506003611f7d565b6040805160008082526020820180845289905260ff881692820192909252606081018690526080810185905260019060a0016020604051602081039080840390855afa158015611f4d573d6000803e3d6000fd5b5050604051601f1901519150506001600160a01b038116611f7657600060019250925050611f7d565b9150600090505b94509492505050565b6000816004811115611f9a57611f9a6132a0565b03611fa25750565b6001816004811115611fb657611fb66132a0565b036120035760405162461bcd60e51b815260206004820152601860248201527f45434453413a20696e76616c6964207369676e6174757265000000000000000060448201526064016106d0565b6002816004811115612017576120176132a0565b036120645760405162461bcd60e51b815260206004820152601f60248201527f45434453413a20696e76616c6964207369676e6174757265206c656e6774680060448201526064016106d0565b6003816004811115612078576120786132a0565b036109565760405162461bcd60e51b815260206004820152602260248201527f45434453413a20696e76616c6964207369676e6174757265202773272076616c604482015261756560f01b60648201526084016106d0565b60606120db82610ec8565b60006120f260408051602081019091526000815290565b90506000815111612112576040518060200160405280600081525061091d565b8061211c8461267a565b60405160200161212d9291906133eb565b6040516020818303038152906040529392505050565b61214d838361270d565b61215a6000848484611dc4565b6107715760405162461bcd60e51b81526004016106d090613399565b60006001600160e01b031982166380ac58cd60e01b14806121a757506001600160e01b03198216635b5e139f60e01b145b8061059d57506301ffc9a760e01b6001600160e01b031983161461059d565b60018111156122355760405162461bcd60e51b815260206004820152603560248201527f455243373231456e756d657261626c653a20636f6e7365637574697665207472604482015274185b9cd9995c9cc81b9bdd081cdd5c1c1bdc9d1959605a1b60648201526084016106d0565b816001600160a01b0385166122915761228c81600880546000838152600960205260408120829055600182018355919091527ff3f7a9fe364faab93b216da50a3214154f22a0a2b415b23a84c8169e8b636ee30155565b6122b4565b836001600160a01b0316856001600160a01b0316146122b4576122b485826128b0565b6001600160a01b0384166122d0576122cb8161294d565b6122f3565b846001600160a01b0316846001600160a01b0316146122f3576122f384826129fc565b5050505050565b612305848483612a40565b610ce7565b606061059d6001600160a01b03831660145b6060600061232b83600261360d565b612336906002613386565b67ffffffffffffffff81111561234e5761234e613033565b6040519080825280601f01601f191660200182016040528015612378576020820181803683370190505b509050600360fc1b8160008151811061239357612393613302565b60200101906001600160f81b031916908160001a905350600f60fb1b816001815181106123c2576123c2613302565b60200101906001600160f81b031916908160001a90535060006123e684600261360d565b6123f1906001613386565b90505b6001811115612469576f181899199a1a9b1b9c1cb0b131b232b360811b85600f166010811061242557612425613302565b1a60f81b82828151811061243b5761243b613302565b60200101906001600160f81b031916908160001a90535060049490941c9361246281613624565b90506123f4565b50831561091d5760405162461bcd60e51b815260206004820181905260248201527f537472696e67733a20686578206c656e67746820696e73756666696369656e7460448201526064016106d0565b600080608083901c156124cd57608092831c92015b604083901c156124df57604092831c92015b602083901c156124f157602092831c92015b601083901c1561250357601092831c92015b600883901c1561251557600892831c92015b600483901c1561252757600492831c92015b600283901c1561253957600292831c92015b600183901c1561059d5760010192915050565b600081831061255b578161091d565b5090919050565b6000612571600284841861363b565b61091d90848416613386565b600061258882610aae565b9050612598816000846001611983565b6125a182610aae565b600083815260046020908152604080832080546001600160a01b03199081169091556001600160a01b0385168085526003845282852080546000190190558785526002909352818420805490911690555192935084927fddf252ad1be2c89b69c2b068fc378daa952ba7f163c4a11628f55a4df523b3ef908390a46108ec816000846001611997565b600061091d8284613373565b6000806126618561265c612649886115d0565b6001600160e01b0316868863ffffffff16565b612ab0565b915091505b935093915050565b600061091d8284613386565b6060600061268783612ae4565b600101905060008167ffffffffffffffff8111156126a7576126a7613033565b6040519080825280601f01601f1916602001820160405280156126d1576020820181803683370190505b5090508181016020015b600019016f181899199a1a9b1b9c1cb0b131b232b360811b600a86061a8153600a85049450846126db57509392505050565b6001600160a01b0382166127635760405162461bcd60e51b815260206004820181905260248201527f4552433732313a206d696e7420746f20746865207a65726f206164647265737360448201526064016106d0565b6000818152600260205260409020546001600160a01b0316156127c85760405162461bcd60e51b815260206004820152601c60248201527f4552433732313a20746f6b656e20616c7265616479206d696e7465640000000060448201526064016106d0565b6127d6600083836001611983565b6000818152600260205260409020546001600160a01b03161561283b5760405162461bcd60e51b815260206004820152601c60248201527f4552433732313a20746f6b656e20616c7265616479206d696e7465640000000060448201526064016106d0565b6001600160a01b038216600081815260036020908152604080832080546001019055848352600290915280822080546001600160a01b0319168417905551839291907fddf252ad1be2c89b69c2b068fc378daa952ba7f163c4a11628f55a4df523b3ef908290a46108ec600083836001611997565b600060016128bd84610b0e565b6128c79190613373565b60008381526007602052604090205490915080821461291a576001600160a01b03841660009081526006602090815260408083208584528252808320548484528184208190558352600790915290208190555b5060009182526007602090815260408084208490556001600160a01b039094168352600681528383209183525290812055565b60085460009061295f90600190613373565b6000838152600960205260408120546008805493945090928490811061298757612987613302565b9060005260206000200154905080600883815481106129a8576129a8613302565b60009182526020808320909101929092558281526009909152604080822084905585825281205560088054806129e0576129e061365d565b6001900381819060005260206000200160009055905550505050565b6000612a0783610b0e565b6001600160a01b039093166000908152600660209081526040808320868452825280832085905593825260079052919091209190915550565b6001600160a01b038316612a5f57612a5c600f61266e83612636565b50505b6001600160a01b038216612a7e57612a7b600f61262a83612636565b50505b6001600160a01b038381166000908152600d602052604080822054858416835291205461077192918216911683611c41565b600080612ace84612ac0436119fc565b612ac986612bbc565b612c25565b6001600160e01b03918216969116945092505050565b60008072184f03e93ff9f4daa797ed6e38ed64bf6a1f0160401b8310612b235772184f03e93ff9f4daa797ed6e38ed64bf6a1f0160401b830492506040015b6d04ee2d6d415b85acef81000000008310612b4f576d04ee2d6d415b85acef8100000000830492506020015b662386f26fc100008310612b6d57662386f26fc10000830492506010015b6305f5e1008310612b85576305f5e100830492506008015b6127108310612b9957612710830492506004015b60648310612bab576064830492506002015b600a831061059d5760010192915050565b60006001600160e01b03821115611a615760405162461bcd60e51b815260206004820152602760248201527f53616665436173743a2076616c756520646f65736e27742066697420696e20326044820152663234206269747360c81b60648201526084016106d0565b825460009081908015612d6e576000612c4387611489600185613373565b60408051808201909152905463ffffffff8082168084526401000000009092046001600160e01b031660208401529192509087161015612cc55760405162461bcd60e51b815260206004820152601760248201527f436865636b706f696e743a20696e76616c6964206b657900000000000000000060448201526064016106d0565b805163ffffffff808816911603612d0e5784612ce688611489600186613373565b80546001600160e01b03929092166401000000000263ffffffff909216919091179055612d5e565b6040805180820190915263ffffffff80881682526001600160e01b0380881660208085019182528b54600181018d5560008d81529190912094519151909216640100000000029216919091179101555b6020015192508391506126669050565b50506040805180820190915263ffffffff80851682526001600160e01b0380851660208085019182528854600181018a5560008a815291822095519251909316640100000000029190931617920191909155905081612666565b508054612dd49061321f565b6000825580601f10612de4575050565b601f01602090049060005260206000209081019061095691905b80821115611a615760008155600101612dfe565b6001600160e01b03198116811461095657600080fd5b600060208284031215612e3a57600080fd5b813561091d81612e12565b60005b83811015612e60578181015183820152602001612e48565b50506000910152565b60008151808452612e81816020860160208601612e45565b601f01601f19169290920160200192915050565b60208152600061091d6020830184612e69565b600060208284031215612eba57600080fd5b5035919050565b80356001600160a01b0381168114612ed857600080fd5b919050565b60008060408385031215612ef057600080fd5b612ef983612ec1565b946020939093013593505050565b600080600060608486031215612f1c57600080fd5b612f2584612ec1565b9250612f3360208501612ec1565b9150604084013590509250925092565b60008060408385031215612f5657600080fd5b82359150612f6660208401612ec1565b90509250929050565b60008060008060808587031215612f8557600080fd5b5050823594602084013594506040840135936060013592509050565b803560ff81168114612ed857600080fd5b60008060408385031215612fc557600080fd5b612fce83612fa1565b9150612f6660208401612fa1565b600060208284031215612fee57600080fd5b61091d82612ec1565b6000806040838503121561300a57600080fd5b61301383612ec1565b91506020830135801515811461302857600080fd5b809150509250929050565b634e487b7160e01b600052604160045260246000fd5b600067ffffffffffffffff8084111561306457613064613033565b604051601f8501601f19908116603f0116810190828211818310171561308c5761308c613033565b816040528093508581528686860111156130a557600080fd5b858560208301376000602087830101525050509392505050565b600080600080608085870312156130d557600080fd5b6130de85612ec1565b93506130ec60208601612ec1565b925060408501359150606085013567ffffffffffffffff81111561310f57600080fd5b8501601f8101871361312057600080fd5b61312f87823560208401613049565b91505092959194509250565b60008060008060008060c0878903121561315457600080fd5b61315d87612ec1565b9550602087013594506040870135935061317960608801612fa1565b92506080870135915060a087013590509295509295509295565b600080604083850312156131a657600080fd5b6131af83612ec1565b9150602083013567ffffffffffffffff8111156131cb57600080fd5b8301601f810185136131dc57600080fd5b6131eb85823560208401613049565b9150509250929050565b6000806040838503121561320857600080fd5b61321183612ec1565b9150612f6660208401612ec1565b600181811c9082168061323357607f821691505b6020821081036117a357634e487b7160e01b600052602260045260246000fd5b6020808252602d908201527f4552433732313a2063616c6c6572206973206e6f7420746f6b656e206f776e6560408201526c1c881bdc88185c1c1c9bdd9959609a1b606082015260800190565b634e487b7160e01b600052602160045260246000fd5b600481106132d457634e487b7160e01b600052602160045260246000fd5b9052565b6001600160a01b0384168152606081016132f560208301856132b6565b6108f360408301846132b6565b634e487b7160e01b600052603260045260246000fd5b60208082526025908201527f4552433732313a207472616e736665722066726f6d20696e636f72726563742060408201526437bbb732b960d91b606082015260800190565b634e487b7160e01b600052601160045260246000fd5b8181038181111561059d5761059d61335d565b8082018082111561059d5761059d61335d565b60208082526032908201527f4552433732313a207472616e7366657220746f206e6f6e20455243373231526560408201527131b2b4bb32b91034b6b83632b6b2b73a32b960711b606082015260800190565b600083516133fd818460208801612e45565b835190830190613411818360208801612e45565b01949350505050565b601f82111561077157600081815260208120601f850160051c810160208610156134415750805b601f850160051c820191505b818110156134605782815560010161344d565b505050505050565b815167ffffffffffffffff81111561348257613482613033565b61349681613490845461321f565b8461341a565b602080601f8311600181146134cb57600084156134b35750858301515b600019600386901b1c1916600185901b178555613460565b600085815260208120601f198616915b828110156134fa578886015182559484019460019091019084016134db565b50858210156135185787850151600019600388901b60f8161c191681555b5050505050600190811b01905550565b7f416363657373436f6e74726f6c3a206163636f756e7420000000000000000000815260008351613560816017850160208801612e45565b7001034b99036b4b9b9b4b733903937b6329607d1b6017918401918201528351613591816028840160208801612e45565b01602801949350505050565b634e487b7160e01b600052601260045260246000fd5b6001600160a01b03858116825284166020820152604081018390526080606082018190526000906135e690830184612e69565b9695505050505050565b60006020828403121561360257600080fd5b815161091d81612e12565b808202811582820484141761059d5761059d61335d565b6000816136335761363361335d565b506000190190565b60008261365857634e487b7160e01b600052601260045260246000fd5b500490565b634e487b7160e01b600052603160045260246000fdfea264697066735822122033bbf979868a4346fd441d1f1730fda6d0d2279f1d012ddcda7babcb4b9ad59164736f6c63430008130033",
  "linkReferences": {},
  "deployedLinkReferences": {}
}